{
  "contractName": "Storage",
  "abi": [
    {
      "inputs": [
        {
          "internalType": "uint256",
          "name": "userId",
          "type": "uint256"
        },
        {
          "internalType": "string",
          "name": "diseaseReport",
          "type": "string"
        },
        {
          "internalType": "string",
          "name": "doctorName",
          "type": "string"
        },
        {
          "internalType": "string",
          "name": "hospitalName",
          "type": "string"
        }
      ],
      "name": "set",
      "outputs": [],
      "stateMutability": "nonpayable",
      "type": "function"
    },
    {
      "inputs": [
        {
          "internalType": "uint256",
          "name": "userId",
          "type": "uint256"
        },
        {
          "internalType": "uint256",
          "name": "index",
          "type": "uint256"
        }
      ],
      "name": "get",
      "outputs": [
        {
          "internalType": "string",
          "name": "diseaseReport",
          "type": "string"
        },
        {
          "internalType": "string",
          "name": "doctorName",
          "type": "string"
        },
        {
          "internalType": "string",
          "name": "hospitalName",
          "type": "string"
        }
      ],
      "stateMutability": "view",
      "type": "function",
      "constant": true
    },
    {
      "inputs": [
        {
          "internalType": "uint256",
          "name": "userId",
          "type": "uint256"
        }
      ],
      "name": "getAll",
      "outputs": [
        {
          "components": [
            {
              "internalType": "string",
              "name": "diseaseReport",
              "type": "string"
            },
            {
              "internalType": "string",
              "name": "doctorName",
              "type": "string"
            },
            {
              "internalType": "string",
              "name": "hospitalName",
              "type": "string"
            }
          ],
          "internalType": "struct Storage.Record[]",
          "name": "",
          "type": "tuple[]"
        }
      ],
      "stateMutability": "view",
      "type": "function",
      "constant": true
    }
  ],
  "bytecode": "0x608060405234801561001057600080fd5b50610e08806100206000396000f3fe608060405234801561001057600080fd5b50600436106100415760003560e01c80633c077a4814610046578063669e48aa14610076578063fbd58f43146100a8575b600080fd5b610060600480360381019061005b9190610693565b6100c4565b60405161006d9190610870565b60405180910390f35b610090600480360381019061008b9190610892565b6102eb565b60405161009f9392919061091c565b60405180910390f35b6100c260048036038101906100bd91906109cd565b6104e4565b005b6060600080838152602001908152602001600020805480602002602001604051908101604052809291908181526020016000905b828210156102e0578382906000526020600020906003020160405180606001604052908160008201805461012b90610ac5565b80601f016020809104026020016040519081016040528092919081815260200182805461015790610ac5565b80156101a45780601f10610179576101008083540402835291602001916101a4565b820191906000526020600020905b81548152906001019060200180831161018757829003601f168201915b505050505081526020016001820180546101bd90610ac5565b80601f01602080910402602001604051908101604052809291908181526020018280546101e990610ac5565b80156102365780601f1061020b57610100808354040283529160200191610236565b820191906000526020600020905b81548152906001019060200180831161021957829003601f168201915b5050505050815260200160028201805461024f90610ac5565b80601f016020809104026020016040519081016040528092919081815260200182805461027b90610ac5565b80156102c85780601f1061029d576101008083540402835291602001916102c8565b820191906000526020600020905b8154815290600101906020018083116102ab57829003601f168201915b505050505081525050815260200190600101906100f8565b505050509050919050565b60608060606000806000878152602001908152602001600020858154811061031657610315610af6565b5b9060005260206000209060030201905080600001816001018260020182805461033e90610ac5565b80601f016020809104026020016040519081016040528092919081815260200182805461036a90610ac5565b80156103b75780601f1061038c576101008083540402835291602001916103b7565b820191906000526020600020905b81548152906001019060200180831161039a57829003601f168201915b505050505092508180546103ca90610ac5565b80601f01602080910402602001604051908101604052809291908181526020018280546103f690610ac5565b80156104435780601f1061041857610100808354040283529160200191610443565b820191906000526020600020905b81548152906001019060200180831161042657829003601f168201915b5050505050915080805461045690610ac5565b80601f016020809104026020016040519081016040528092919081815260200182805461048290610ac5565b80156104cf5780601f106104a4576101008083540402835291602001916104cf565b820191906000526020600020905b8154815290600101906020018083116104b257829003601f168201915b50505050509050935093509350509250925092565b600080888152602001908152602001600020604051806060016040528088888080601f016020809104026020016040519081016040528093929190818152602001838380828437600081840152601f19601f82011690508083019250505050505050815260200186868080601f016020809104026020016040519081016040528093929190818152602001838380828437600081840152601f19601f82011690508083019250505050505050815260200184848080601f016020809104026020016040519081016040528093929190818152602001838380828437600081840152601f19601f820116905080830192505050505050508152509080600181540180825580915050600190039060005260206000209060030201600090919091909150600082015181600001908161061b9190610d00565b5060208201518160010190816106319190610d00565b5060408201518160020190816106479190610d00565b50505050505050505050565b600080fd5b600080fd5b6000819050919050565b6106708161065d565b811461067b57600080fd5b50565b60008135905061068d81610667565b92915050565b6000602082840312156106a9576106a8610653565b5b60006106b78482850161067e565b91505092915050565b600081519050919050565b600082825260208201905092915050565b6000819050602082019050919050565b600081519050919050565b600082825260208201905092915050565b60005b8381101561072657808201518184015260208101905061070b565b60008484015250505050565b6000601f19601f8301169050919050565b600061074e826106ec565b61075881856106f7565b9350610768818560208601610708565b61077181610732565b840191505092915050565b600060608301600083015184820360008601526107998282610743565b915050602083015184820360208601526107b38282610743565b915050604083015184820360408601526107cd8282610743565b9150508091505092915050565b60006107e6838361077c565b905092915050565b6000602082019050919050565b6000610806826106c0565b61081081856106cb565b935083602082028501610822856106dc565b8060005b8581101561085e578484038952815161083f85826107da565b945061084a836107ee565b925060208a01995050600181019050610826565b50829750879550505050505092915050565b6000602082019050818103600083015261088a81846107fb565b905092915050565b600080604083850312156108a9576108a8610653565b5b60006108b78582860161067e565b92505060206108c88582860161067e565b9150509250929050565b600082825260208201905092915050565b60006108ee826106ec565b6108f881856108d2565b9350610908818560208601610708565b61091181610732565b840191505092915050565b6000606082019050818103600083015261093681866108e3565b9050818103602083015261094a81856108e3565b9050818103604083015261095e81846108e3565b9050949350505050565b600080fd5b600080fd5b600080fd5b60008083601f84011261098d5761098c610968565b5b8235905067ffffffffffffffff8111156109aa576109a961096d565b5b6020830191508360018202830111156109c6576109c5610972565b5b9250929050565b60008060008060008060006080888a0312156109ec576109eb610653565b5b60006109fa8a828b0161067e565b975050602088013567ffffffffffffffff811115610a1b57610a1a610658565b5b610a278a828b01610977565b9650965050604088013567ffffffffffffffff811115610a4a57610a49610658565b5b610a568a828b01610977565b9450945050606088013567ffffffffffffffff811115610a7957610a78610658565b5b610a858a828b01610977565b925092505092959891949750929550565b7f4e487b7100000000000000000000000000000000000000000000000000000000600052602260045260246000fd5b60006002820490506001821680610add57607f821691505b602082108103610af057610aef610a96565b5b50919050565b7f4e487b7100000000000000000000000000000000000000000000000000000000600052603260045260246000fd5b7f4e487b7100000000000000000000000000000000000000000000000000000000600052604160045260246000fd5b60008190508160005260206000209050919050565b60006020601f8301049050919050565b600082821b905092915050565b600060088302610bb67fffffffffffffffffffffffffffffffffffffffffffffffffffffffffffffffff82610b79565b610bc08683610b79565b95508019841693508086168417925050509392505050565b6000819050919050565b6000610bfd610bf8610bf38461065d565b610bd8565b61065d565b9050919050565b6000819050919050565b610c1783610be2565b610c2b610c2382610c04565b848454610b86565b825550505050565b600090565b610c40610c33565b610c4b818484610c0e565b505050565b5b81811015610c6f57610c64600082610c38565b600181019050610c51565b5050565b601f821115610cb457610c8581610b54565b610c8e84610b69565b81016020851015610c9d578190505b610cb1610ca985610b69565b830182610c50565b50505b505050565b600082821c905092915050565b6000610cd760001984600802610cb9565b1980831691505092915050565b6000610cf08383610cc6565b9150826002028217905092915050565b610d09826106ec565b67ffffffffffffffff811115610d2257610d21610b25565b5b610d2c8254610ac5565b610d37828285610c73565b600060209050601f831160018114610d6a5760008415610d58578287015190505b610d628582610ce4565b865550610dca565b601f198416610d7886610b54565b60005b82811015610da057848901518255600182019150602085019450602081019050610d7b565b86831015610dbd5784890151610db9601f891682610cc6565b8355505b6001600288020188555050505b50505050505056fea2646970667358221220dfeef912d92c010e7d7a83522f1a372d3f4ffac446051eccec4618b83ba33ad864736f6c63430008130033",
  "immutableReferences": {},
  "source": "pragma solidity ^0.8.0;\r\n\r\ncontract Storage {\r\n    struct Record {\r\n        string diseaseReport;\r\n        string doctorName;\r\n        string hospitalName;\r\n    }\r\n\r\n    mapping(uint256 => Record[]) private records;\r\n\r\n    function set(\r\n        uint256 userId,\r\n        string calldata diseaseReport,\r\n        string calldata doctorName,\r\n        string calldata hospitalName\r\n    ) public {\r\n        records[userId].push(Record(diseaseReport, doctorName, hospitalName));\r\n    }\r\n\r\n    function get(uint256 userId, uint256 index)\r\n    public\r\n    view\r\n    returns (\r\n        string memory diseaseReport,\r\n        string memory doctorName,\r\n        string memory hospitalName\r\n    )\r\n    {\r\n        Record storage record = records[userId][index];\r\n        return (\r\n        record.diseaseReport,\r\n        record.doctorName,\r\n        record.hospitalName\r\n        );\r\n    }\r\n\r\n    function getAll(uint256 userId)\r\n    public\r\n    view\r\n    returns (Record[] memory)\r\n    {\r\n        return records[userId];\r\n    }\r\n}\r\n",
  "sourcePath": "C:\\Users\\pc\\Documents\\Mes_Projets\\nodejsblock\\hacktoncruchers\\contracts\\storage.sol",
  "compiler": {
    "name": "solc",
    "version": "0.8.19+commit.7dd6d404.Emscripten.clang"
  },
  "schemaVersion": "3.4.13",
  "updatedAt": "2023-03-17T06:35:13.354Z",
  "networkType": "ethereum",
  "devdoc": {
    "kind": "dev",
    "methods": {},
    "version": 1
  },
  "userdoc": {
    "kind": "user",
    "methods": {},
    "version": 1
  }
}