{
  "contractName": "Storage",
  "abi": [
    {
      "inputs": [
        {
          "internalType": "string",
          "name": "userId",
          "type": "string"
        },
        {
          "internalType": "string",
          "name": "diseaseReport",
          "type": "string"
        },
        {
          "internalType": "string",
          "name": "doctorName",
          "type": "string"
        },
        {
          "internalType": "string",
          "name": "hospitalName",
          "type": "string"
        }
      ],
      "name": "set",
      "outputs": [],
      "stateMutability": "nonpayable",
      "type": "function"
    },
    {
      "inputs": [
        {
          "internalType": "string",
          "name": "userId",
          "type": "string"
        },
        {
          "internalType": "uint256",
          "name": "index",
          "type": "uint256"
        }
      ],
      "name": "get",
      "outputs": [
        {
          "internalType": "string",
          "name": "diseaseReport",
          "type": "string"
        },
        {
          "internalType": "string",
          "name": "doctorName",
          "type": "string"
        },
        {
          "internalType": "string",
          "name": "hospitalName",
          "type": "string"
        }
      ],
      "stateMutability": "view",
      "type": "function",
      "constant": true
    },
    {
      "inputs": [
        {
          "internalType": "string",
          "name": "userId",
          "type": "string"
        }
      ],
      "name": "getAll",
      "outputs": [
        {
          "components": [
            {
              "internalType": "string",
              "name": "diseaseReport",
              "type": "string"
            },
            {
              "internalType": "string",
              "name": "doctorName",
              "type": "string"
            },
            {
              "internalType": "string",
              "name": "hospitalName",
              "type": "string"
            }
          ],
          "internalType": "struct Storage.Record[]",
          "name": "",
          "type": "tuple[]"
        }
      ],
      "stateMutability": "view",
      "type": "function",
      "constant": true
    }
  ],
  "bytecode": "0x608060405234801561001057600080fd5b50610eed806100206000396000f3fe608060405234801561001057600080fd5b50600436106100415760003560e01c806304ea6bb9146100465780631be5e7ed14610076578063f60886b5146100a8575b600080fd5b610060600480360381019061005b91906106ef565b6100c4565b60405161006d91906108ec565b60405180910390f35b610090600480360381019061008b9190610944565b6102fa565b60405161009f939291906109ee565b60405180910390f35b6100c260048036038101906100bd9190610a3a565b610502565b005b6060600083836040516100d8929190610b62565b9081526020016040518091039020805480602002602001604051908101604052809291908181526020016000905b828210156102ee578382906000526020600020906003020160405180606001604052908160008201805461013990610baa565b80601f016020809104026020016040519081016040528092919081815260200182805461016590610baa565b80156101b25780601f10610187576101008083540402835291602001916101b2565b820191906000526020600020905b81548152906001019060200180831161019557829003601f168201915b505050505081526020016001820180546101cb90610baa565b80601f01602080910402602001604051908101604052809291908181526020018280546101f790610baa565b80156102445780601f1061021957610100808354040283529160200191610244565b820191906000526020600020905b81548152906001019060200180831161022757829003601f168201915b5050505050815260200160028201805461025d90610baa565b80601f016020809104026020016040519081016040528092919081815260200182805461028990610baa565b80156102d65780601f106102ab576101008083540402835291602001916102d6565b820191906000526020600020905b8154815290600101906020018083116102b957829003601f168201915b50505050508152505081526020019060010190610106565b50505050905092915050565b60608060606000808787604051610312929190610b62565b9081526020016040518091039020858154811061033257610331610bdb565b5b9060005260206000209060030201905080600001816001018260020182805461035a90610baa565b80601f016020809104026020016040519081016040528092919081815260200182805461038690610baa565b80156103d35780601f106103a8576101008083540402835291602001916103d3565b820191906000526020600020905b8154815290600101906020018083116103b657829003601f168201915b505050505092508180546103e690610baa565b80601f016020809104026020016040519081016040528092919081815260200182805461041290610baa565b801561045f5780601f106104345761010080835404028352916020019161045f565b820191906000526020600020905b81548152906001019060200180831161044257829003601f168201915b5050505050915080805461047290610baa565b80601f016020809104026020016040519081016040528092919081815260200182805461049e90610baa565b80156104eb5780601f106104c0576101008083540402835291602001916104eb565b820191906000526020600020905b8154815290600101906020018083116104ce57829003601f168201915b505050505090509350935093505093509350939050565b60008888604051610514929190610b62565b9081526020016040518091039020604051806060016040528088888080601f016020809104026020016040519081016040528093929190818152602001838380828437600081840152601f19601f82011690508083019250505050505050815260200186868080601f016020809104026020016040519081016040528093929190818152602001838380828437600081840152601f19601f82011690508083019250505050505050815260200184848080601f016020809104026020016040519081016040528093929190818152602001838380828437600081840152601f19601f82011690508083019250505050505050815250908060018154018082558091505060019003906000526020600020906003020160009091909190915060008201518160000190816106479190610de5565b50602082015181600101908161065d9190610de5565b5060408201518160020190816106739190610de5565b5050505050505050505050565b600080fd5b600080fd5b600080fd5b600080fd5b600080fd5b60008083601f8401126106af576106ae61068a565b5b8235905067ffffffffffffffff8111156106cc576106cb61068f565b5b6020830191508360018202830111156106e8576106e7610694565b5b9250929050565b6000806020838503121561070657610705610680565b5b600083013567ffffffffffffffff81111561072457610723610685565b5b61073085828601610699565b92509250509250929050565b600081519050919050565b600082825260208201905092915050565b6000819050602082019050919050565b600081519050919050565b600082825260208201905092915050565b60005b838110156107a2578082015181840152602081019050610787565b60008484015250505050565b6000601f19601f8301169050919050565b60006107ca82610768565b6107d48185610773565b93506107e4818560208601610784565b6107ed816107ae565b840191505092915050565b6000606083016000830151848203600086015261081582826107bf565b9150506020830151848203602086015261082f82826107bf565b9150506040830151848203604086015261084982826107bf565b9150508091505092915050565b600061086283836107f8565b905092915050565b6000602082019050919050565b60006108828261073c565b61088c8185610747565b93508360208202850161089e85610758565b8060005b858110156108da57848403895281516108bb8582610856565b94506108c68361086a565b925060208a019950506001810190506108a2565b50829750879550505050505092915050565b600060208201905081810360008301526109068184610877565b905092915050565b6000819050919050565b6109218161090e565b811461092c57600080fd5b50565b60008135905061093e81610918565b92915050565b60008060006040848603121561095d5761095c610680565b5b600084013567ffffffffffffffff81111561097b5761097a610685565b5b61098786828701610699565b9350935050602061099a8682870161092f565b9150509250925092565b600082825260208201905092915050565b60006109c082610768565b6109ca81856109a4565b93506109da818560208601610784565b6109e3816107ae565b840191505092915050565b60006060820190508181036000830152610a0881866109b5565b90508181036020830152610a1c81856109b5565b90508181036040830152610a3081846109b5565b9050949350505050565b6000806000806000806000806080898b031215610a5a57610a59610680565b5b600089013567ffffffffffffffff811115610a7857610a77610685565b5b610a848b828c01610699565b9850985050602089013567ffffffffffffffff811115610aa757610aa6610685565b5b610ab38b828c01610699565b9650965050604089013567ffffffffffffffff811115610ad657610ad5610685565b5b610ae28b828c01610699565b9450945050606089013567ffffffffffffffff811115610b0557610b04610685565b5b610b118b828c01610699565b92509250509295985092959890939650565b600081905092915050565b82818337600083830152505050565b6000610b498385610b23565b9350610b56838584610b2e565b82840190509392505050565b6000610b6f828486610b3d565b91508190509392505050565b7f4e487b7100000000000000000000000000000000000000000000000000000000600052602260045260246000fd5b60006002820490506001821680610bc257607f821691505b602082108103610bd557610bd4610b7b565b5b50919050565b7f4e487b7100000000000000000000000000000000000000000000000000000000600052603260045260246000fd5b7f4e487b7100000000000000000000000000000000000000000000000000000000600052604160045260246000fd5b60008190508160005260206000209050919050565b60006020601f8301049050919050565b600082821b905092915050565b600060088302610c9b7fffffffffffffffffffffffffffffffffffffffffffffffffffffffffffffffff82610c5e565b610ca58683610c5e565b95508019841693508086168417925050509392505050565b6000819050919050565b6000610ce2610cdd610cd88461090e565b610cbd565b61090e565b9050919050565b6000819050919050565b610cfc83610cc7565b610d10610d0882610ce9565b848454610c6b565b825550505050565b600090565b610d25610d18565b610d30818484610cf3565b505050565b5b81811015610d5457610d49600082610d1d565b600181019050610d36565b5050565b601f821115610d9957610d6a81610c39565b610d7384610c4e565b81016020851015610d82578190505b610d96610d8e85610c4e565b830182610d35565b50505b505050565b600082821c905092915050565b6000610dbc60001984600802610d9e565b1980831691505092915050565b6000610dd58383610dab565b9150826002028217905092915050565b610dee82610768565b67ffffffffffffffff811115610e0757610e06610c0a565b5b610e118254610baa565b610e1c828285610d58565b600060209050601f831160018114610e4f5760008415610e3d578287015190505b610e478582610dc9565b865550610eaf565b601f198416610e5d86610c39565b60005b82811015610e8557848901518255600182019150602085019450602081019050610e60565b86831015610ea25784890151610e9e601f891682610dab565b8355505b6001600288020188555050505b50505050505056fea2646970667358221220de2d0d70d24fd280b76061914751ecda7fdc4f44ed3d4c48e82fa0a38c0764c164736f6c63430008130033",
  "immutableReferences": {},
  "source": "pragma solidity ^0.8.0;\r\n\r\ncontract Storage {\r\n    struct Record {\r\n        string diseaseReport;\r\n        string doctorName;\r\n        string hospitalName;\r\n    }\r\n\r\n    mapping(string => Record[]) private records;\r\n\r\n    function set(\r\n        string calldata userId,\r\n        string calldata diseaseReport,\r\n        string calldata doctorName,\r\n        string calldata hospitalName\r\n    ) public {\r\n        records[userId].push(Record(diseaseReport, doctorName, hospitalName));\r\n    }\r\n\r\n    function get(string calldata userId, uint256 index)\r\n    public\r\n    view\r\n    returns (\r\n        string memory diseaseReport,\r\n        string memory doctorName,\r\n        string memory hospitalName\r\n    )\r\n    {\r\n        Record storage record = records[userId][index];\r\n        return (\r\n            record.diseaseReport,\r\n            record.doctorName,\r\n            record.hospitalName\r\n        );\r\n    }\r\n\r\n    function getAll(string calldata userId)\r\n    public\r\n    view\r\n    returns (Record[] memory)\r\n    {\r\n        return records[userId];\r\n    }\r\n}\r\n",
  "sourcePath": "C:\\Users\\pc\\Documents\\Mes_Projets\\ENSET_HACKATHON_2023\\hacktoncruchers\\contracts\\storage.sol",
  "compiler": {
    "name": "solc",
    "version": "0.8.19+commit.7dd6d404.Emscripten.clang"
  },
  "schemaVersion": "3.4.13",
  "updatedAt": "2023-03-19T18:26:03.210Z",
  "networkType": "ethereum",
  "devdoc": {
    "kind": "dev",
    "methods": {},
    "version": 1
  },
  "userdoc": {
    "kind": "user",
    "methods": {},
    "version": 1
  }
}